:1000000030C2000066C2000064C2000062C200008C
:1000100060C200005EC200005CC200005AC2000064
:1000200058C2000056C200000C94AE1E0C947B1FF8
:100030000C940A1A4EC200004CC200004AC20000D2
:1000400048C2000046C2000044C2000042C2000094
:1000500040C200000C94661A3CC200003AC2000084
:1000600038C2000036C2000034C2000032C20000B4
:1000700030C200002EC200002CC200002AC20000C4
:1000800028C2000026C2000024C2000022C20000D4
:1000900020C200001EC200001CC200001AC20000E4
:1000A00018C2000016C2000014C2000014001A009A
:1000B000090013000500000000000000000000001F
:1000C00004001500160017000A00000000000000E0
:1000D000000000001D001B000600070019000000C2
:1000E000000000000000000000000000E0000041EF
:1000F0002C00000000000000000000000D000F00B8
:1001000018001C0033000000000000000000000088
:100110001000110008000C00120000000000000098
:10012000000000000E000B003665376838740000D0
:1001300000000000000000002A000042E50000006E
:1001400000000000000000000000000029004C003A
:100150005200AC00AB0000000000000000000000F6
:100160002B00500051004F00AE00000000000000C6
:10017000000000003900AA00A9003500310000008D
:10018000000000000000000000000000E00000008F
:100190002C000000000000000000000024002500EA
:1001A00026002700340000000000000000000000CE
:1001B0002100220023002F0030000000000000007A
:1001C000000000001E001F0020002D002E00000077
:1001D000000000000000000028000000E500000012
:1001E00000000000000000000000000029004000A6
:1001F0004100420043000000000000000000000039
:100200002B003D003E003F004400000000000000C5
:100210000000000039003A003B003C0045000000AF
:10022000000000000000000000000000E0000000EE
:10023000A50000000000000000000000F400F10034
:10024000F900F200F50000000000000000000000CE
:10025000FF00EF00EE00ED00F000000000000000E5
:1002600000000000FE00FB00FA00FC00FD000000A2
:10027000000000000000000028000000E500000071
:10028000000000000000000000000000000000006E
:10029000000000002A2B28000000000000000000E1
:1002A0000000000000000029000000002C1E342087
:1002B000212224342627252E362D3738271E1F20AD
:1002C0002122232425263333362E37381F040506F2
:1002D0000708090A0B0C0D0E0F1011121314151636
:1002E0001718191A1B1C1D2F3130232D3504050634
:1002F0000708090A0B0C0D0E0F1011121314151616
:100300001718191A1B1C1D2F3130354C0000000026
:1003100000000000000000000000000000000000DD
:1003200000000000000000000000000000000000CD
:100330007E0F00D4FFFFFFC70000007808033300E2
:100340007700360000000E0377006500740065003A
:100350006F00720000000403090409023B0002015F
:1003600000A0FA09040000010301010009211101A4
:100370000001224000070581030800010904010073
:100380000103000000092111010001227B00070583
:1003900082032000011201000200000008EDFE5857
:1003A0004602000102000105010902A101850209BE
:1003B00001A10005091901290815002501950875F5
:1003C0000181020501093009311581257F950275EA
:1003D00008810609381581257F9501750881060574
:1003E0000C0A38021581257F950175088106C0C069
:1003F00005010980A101850319012AB7001501260D
:10040000B700950175108100C0050C0901A1018597
:100410000419012AA002150126A002950175108178
:1004200000C005010906A101050719E029E715002B
:10043000250195087501810295017508810105075F
:10044000190029FF150026FF009506750881000593
:10045000081901290595057501910295017503910A
:1004600001C011241FBECFEFDAE0DEBFCDBF04B65E
:1004700003FE18C080918C0290918D02A0918E0293
:10048000B0918F028730904BA740B04B59F4109237
:100490008C0210928D0210928E0210928F02E0E078
:1004A000F8E3099511E0A0E0B1E0E2EBF3E402C06B
:1004B00005900D92A438B107D9F722E0A4E8B1E085
:1004C00001C01D92AC38B207E1F70E946C120C9487
:1004D000C12196CDA4E0B0E0E0E7F2E00C94502119
:1004E0008091190190911A01A0911B01B0911C01FA
:1004F00089839A83AB83BC83DE0111969E012B5FB7
:100500003F4F41E050E08D91E82FE295EF70F0E031
:1005100061A18F708A0102C0000F111F8A95E2F756
:10052000C8018095962F982391A392A1982392A316
:1005300092A1892382A32A173B0729F72496E4E096
:100540000C946C21A5E0B0E0E8EAF2E00C945021B4
:100550009FEF9D83843038F54091190150911A0125
:1005600060911B0170911C0149835A836B837C83CA
:10057000FE01E80FF11D2181E22FE295EF70F0E01E
:1005800031A12F7081E090E001C0880F2A95EAF731
:10059000932F982B91A392A18095892382A32596CE
:1005A000E4E00C946C212091000130910101232B97
:1005B000B1F78630C1F08730C1F0853091F08EEF11
:1005C0008D8308EE13E021E030E0AE014B5F5F4F1A
:1005D00063E080E40E94C4189093010180930001BD
:1005E000DECF8DEFEDCF8BEFEBCF87EFE9CFA5E03F
:1005F000B0E0EDEFF2E00C9450218430B0F585E0EE
:10060000EDE1F1E0DE01119601900D928A95E1F79E
:10061000FE01319650E040E090E080E001E010E023
:100620006191A62FA295AF70B0E090962C9130E02A
:100630006F7002C0359527956A95E2F720FD12C0CC
:100640009801042E02C0220F331F0A94E2F7822B76
:10065000932B4F5F5F4F4530510511F72596E4E02E
:100660000C946C2130E020E0F2CF80910001909159
:100670000101892BA9F5198208EE13E021E030E091
:10068000AE014F5F5F4F60E080E40E94E8189093F6
:10069000010180930001892B19F589818095482FEC
:1006A00050E09A0194E0220F331F9A95E1F72071F0
:1006B000BA01660F771F660F771F6870262B84704C
:1006C000282BCA0195958795959587958270282B3B
:1006D00044FB882780F9822B082E000C990BBECF93
:1006E00090E080E0BBCFA2E0B0E0E9E7F3E00C945B
:1006F000502180E490E0909301018093000180916B
:10070000870181110EC00E94E51781E08093870167
:100710002FEF83ED90E3215080409040E1F700C03F
:1007200000008FEF898380EF8A8308EE13E022E0D8
:1007300030E0AE014F5F5F4F66E080E40E94C41876
:1007400080930001909301012296E4E00C946C21C7
:10075000A5E0B0E0EEEAF3E00C945021C4DF90E0B5
:100760009093010180930001B5DE85E0EDE1F1E0B9
:10077000DE01119601900D928A95E1F7DE01119646
:10078000AE014A5F5F4F61E070E08D91E82FE29526
:10079000EF70F0E021A18F708B0102C0000F111FDC
:1007A0008A95E2F7802F8095282321A392A1982390
:1007B00092A382A1802B82A34A175B0731F725966B
:1007C000E4E00C946C21C4CF0895EF92FF920F9354
:1007D0001F93CF93DF938C018091000190910101D1
:1007E000892B69F0809186018F5F8093860181114A
:1007F00006C079DF90E09093010180930001E80149
:1008000010E000E084E0E82EE10E812F9BDE8E2DCB
:1008100099DE812FECDE29913991F12C8217930713
:1008200031F0FE01329791838083FF24F3948E2D63
:10083000DEDE2E813F818217930779F09F838E83BE
:1008400081E08F29082B46DE1F5F1430D9F6802FF8
:10085000CDB7DEB7E6E00C946A2180E0F2CF9C01D0
:100860003A9521153F4150F5FC01EE27F170BC018E
:1008700066277270AC01442754709C01222738709F
:1008800094FF0EC080E1EF2B09F480E0672B09F0A4
:100890008062452B09F08064232B89F080680895DD
:1008A00081E0EF2B09F480E0672B09F08260452B93
:1008B00009F08460232B19F08860089580E0089582
:1008C000CF93DF93EB01CBDFFE010995DF91CF9151
:1008D0000895CF93DF93EC01805E9109089720F093
:1008E00060ED78E0209711F469EA76E0CE01E8DF68
:1008F0008C2F9BD1DF91CF910895CF93DF93EC01A3
:10090000DBD1CE01805E9109089720F065ED78E09B
:10091000209711F46EEA76E0CE01D2DFDF91CF911D
:100920000895CF93DF93EC01D4DFC933D10549F4A7
:100930002FEF87EE93E0215080409040E1F700C018
:100940000000CE01DADFDF91CF91089581E00895B4
:1009500081E00895FDCF08950895FECF0895A5E0A4
:10096000B0E0E5EBF4E00C94512149835A833091D7
:10097000890189819A81311116C0662389F0222369
:1009800079F0E6D5182F682F89819A81BFD56981C2
:100990007A81812F0E94D8102596E3E00C946D2176
:1009A000C6D5182FF4CFD4D569817A81F3CFFC0155
:1009B000262F40815181628173818481D0CF089537
:1009C00081E00895CF93DF93EC0160E0F0DFBE019A
:1009D000C4DFDF91CF9108950C94F31108950C9426
:1009E000F61108950895F8D3FDDF2FEF84E39CE01E
:1009F000215080409040E1F700C000000895F3DFEF
:100A00000C948A1A0895EFDF0C94AE1A08950F9390
:100A10001F93CF93DF938C0161E0C9DFEC01B80134
:100A200099DF811106C080E0DF91CF911F910F9176
:100A30000895B801CE010E94B1158823A1F3B80131
:100A4000CE010E949417882371F3B801CE010E9451
:100A5000CE15882341F3B801CE010E9408178823E0
:100A600011F3F8018281882361F0CB35FDE5DF07C2
:100A7000E9F050F4C115ECE5DE0781F0CF3DDC452F
:100A800079F0C80163DFD0CFCD358DE5D80759F0B7
:100A900080F0C83ADD45A9F7B6DFC5CFB0DFC3CFD8
:100AA0000E942E0FF9CF0E94760EEBCF0E947F0E90
:100AB000E8CF0E94820EE5CF73D00C94011A0895FE
:100AC000B0E0A0E0E6E6F5E00C944D21E82FF0E080
:100AD000E457FD4FD490282F26952695269530E093
:100AE000F901E45DFC4F0491877010E0082E02C00C
:100AF000159507950A94E2F701701127F901E45E54
:100B0000FC4FE490F12C082E02C0F594E7940A946F
:100B1000E2F791E0E922FF24F901E45FFC4FC49180
:100B2000D0E002C0D595C7958A95E2F7C170DD2760
:100B30000115110511F081EE78D0E114F10411F0E6
:100B400086EE73D08D2DFDD0E114F10411F086EE08
:100B5000B3D00115110511F081EEAED0CD2B11F0FF
:100B60008CE2EFD0CDB7DEB7E7E00C946921982F87
:100B70009F709A50963018F0805DA2CF0895895AE0
:100B8000FCCF0895FECF089581E00895FDCF08952C
:100B90000895CF93C82FF6DF8C2FF8DFCF910895FB
:100BA0000E943619F6CF08950E9436199091880157
:100BB000981719F080938801ECCF0895ABE0B0E06E
:100BC000E4EEF5E00C9452214F83588769877A87C9
:100BD0008B876111E3D71E821D8285E0FE01379667
:100BE000DE01119601900D928A95E1F78C819D812D
:100BF000892B59F449815A816B817C818D819E8139
:100C0000F9D62B96E2E00C946E2189819A81892392
:100C10008F3F81F3CE010196D3DE8111EBCFF1CF6F
:100C2000FC0180819181CDC40895CF93C82F882382
:100C300099F08CEF8C0F813A88F46C2F809102012F
:100C4000909103010E949C19882319F08C2F63D77F
:100C5000C3D78C2F58D7C0D7CF91089580E28C0F7F
:100C6000883040F4C77081E001C0880FCA95EAF768
:100C700075D7F1CFEBE5EC0FE33040F4F0E0E05B4B
:100C8000FE4F808190E00E945E19E6CFE8E5EC0F10
:100C9000E73150F4F0E0EE0FFF1FEE5DFE4F808174
:100CA00091810E947419D8CFCD3EB0F28C2F0E9452
:100CB000EB120E94B613D0CF882361F19CEF980FFE
:100CC000913A18F428D788C7089590E2980F983081
:100CD00048F4877091E001C0990F8A95EAF7892F4F
:100CE00043D7F1CF9BE5980F933028F490E080E054
:100CF0000C945E19089598E5980F973128F490E0C8
:100D000080E00C94741908958D3E20F00E943D13EC
:100D10000C94B61308951F93CF93DF93182FEB0114
:100D200084DF209731F4812FC7DFDF91CF911F91AE
:100D300008958FE99FE00197F1F700C00000219727
:100D4000F0CF70E060E0893311F460E570E0E3CF4C
:100D50000895882311F002D73FC70895882311F022
:100D600003D73AC70895B0E0A0E0E9EBF6E00C94B1
:100D70004B216C01D62FC72FFC011281F580F29414
:100D80009FE0F922E1D6E82E8823A9F0E12E112375
:100D900091F08C2F807F803421F080E28D0F88309D
:100DA000C0F08091530282FF14C082E072D7CCD68B
:100DB00091E0E82EE926BC2EB2948FE0B822FBE049
:100DC000FB1508F45DC0EB2DF0E0ED53FE4D0C94E7
:100DD0003C21E12CF0CF0C2F0F70C07F11F0029559
:100DE000007F112381F0002349F080E28D0F8830CD
:100DF00010F0D11105C0802FB1D6EED68D2F3AC09C
:100E0000802FBFD6FACF8D2F57DF002309F438C0CB
:100E100080E28D0F883010F0D11103C0802FA4D64E
:100E200002C0802FB4D6D8D62BC00C2F0F70C07F35
:100E3000C03211F00295007FDD2381F0D13009F43A
:100E400052C0112309F45CC0FF2009F452C0F6011E
:100E5000858180FFD3CF8F7085834BC080915302F3
:100E600082FD28C0112341F0002319F0802F76D68F
:100E7000B3D680E0DADE04C080E01EDF0111CECF01
:100E8000EB2DE850FF0B349718F40E94361981DEE1
:100E9000EE2059F055D680FD08C0F60112824AD6E0
:100EA00043D2C60158D146D660D2CDB7DEB7E9E00D
:100EB0000C946721112369F0F11004C072D6802BC5
:100EC00048DFDECF21E0F212F9CF6BD6802B6FD650
:100ED000D7CFF11004C077D6802F40DFD1CF31E0DB
:100EE000F31671F2F8CF112331F085E08F1508F475
:100EF000C7CF802FE5CF94E09F1508F4C1CFECCF8A
:100F0000FF2051F3D93349F4FFEF27EE33E0F150DE
:100F100020403040E1F700C000008D2FCDDEB0CF83
:100F20008C2F86958695837069F0813009F0A8CF63
:100F30008D2F9C2F9370111102C090E080E00E94D1
:100F400074199ECF8D2F9C2F9370111102C090E0C9
:100F500080E00E945E1994CF8D2F112329F00E940A
:100F6000EB120E94B6138CCF0E943D13FACF8C2F48
:100F7000837009F03DC0111183CF4D2F42954695E6
:100F80004770440F440F0D2F0F7010E030E020E049
:100F9000042E04C0000F111F221F331F0A94D2F722
:100FA00060E070E0CB01D4FF0FC06FE070E080E044
:100FB00090E004C0660F771F881F991F4A95D2F7EB
:100FC0006095709580959095C695C695C370602B79
:100FD000712B822B932BC23039F040F4C13011F0C9
:100FE00056D14ECF42D14CCF64D14ACF3CD148CF1D
:100FF0008695112311F08C2F8170882309F440CF3E
:101000004D2F429546954770440F440F0D2F0F709A
:1010100010E030E020E0042E04C0000F111F221F5A
:10102000331F0A94D2F760E070E0CB01D4FF0FC009
:101030006FE070E080E090E004C0660F771F881FCB
:10104000991F4A95D2F76095709580959095C695B1
:10105000C695C370602B712B822B932BC23039F055
:1010600040F4C13011F0D7D10BCFC3D109CFE5D1B6
:1010700007CF35D105CFCF70112321F08C2F54D15C
:101080008D2F1ECF8D2F6ADE8C2F6FD1F9CED23FE0
:1010900049F160F4D03FB9F0D13F81F0112309F458
:1010A00041C0F110ABCE8C2F8F7120C0D33F01F126
:1010B000D43FA1F78091530282FD22C08C2F8F7103
:1010C000112319F313C0112341F084E08F1508F4A4
:1010D000D7CE8C2F8F716CD1D3CE95E09F1508F4AD
:1010E000CFCEF7CF8C2F8F711111CFCF1DD1C8CE9E
:1010F000112321F08C2F8F7102D1C2CEFBD0C0CE34
:10110000112339F0CF718C2F0FD163E08C2FA7D52D
:10111000B7CE81E0BED5E1E0EF1508F0B1CE82E0B8
:10112000B8D5AECEF110EECE8C2F8F71AECF0F931F
:101130001F93CF93DF93EC01688179818A814AD232
:101140008C018DD18FD0B801CE010DDEDF91CF9112
:101150001F910F910895CF93DF93EC018B819C81B8
:10116000892B29F08881998189238F3F41F4DF9170
:10117000CF910895CE01DBDFCE0124DCF8CFCE0184
:1011800046DC8111F7CFE0D4882389F38A81882354
:1011900071F38091530282FFEACF82E07AD5E7CFE4
:1011A000882311F0EED418C50895882311F0EFD4E8
:1011B00013C5089590E080E00E945E1990E080E001
:1011C0000E947419EBD408D50E94D0130C94B61366
:1011D0000895A9D4EFCF0895D1D4FBCF0895929567
:1011E0009F70963091F058F4925F9F70923058F44F
:1011F000803F19F030F4883E30F481E008959A5F22
:10120000F4CF843FD1F380E00895883EB0F3813F6E
:10121000D1F7F3CFFC0180819181D3D1E0CF089544
:10122000A5E0B0E0E6E1F9E00C9452212596E2E079
:101230000C946E21A6E0B0E0E0E2F9E00C945221BB
:101240002696E2E00C946E210895FECF0895FDDF0E
:101250006093C0017093C1018093C2019093C30158
:10126000A9CF08950895F3CF08950F931F93009188
:10127000C0011091C1012091C2013091C301602BC6
:10128000712B822B932BE3DF1F910F9108950F9306
:101290001F930091C0011091C1012091C2013091B2
:1012A000C3016023712382239323D1DF1F910F9108
:1012B00008950F931F930091C0011091C1012091D7
:1012C000C2013091C3016027712782279327BFDFB6
:1012D0001F910F910895B8CF0895FDCF0895FDDFB8
:1012E0006093BC017093BD018093BE019093BF01D8
:1012F00061CF089560E070E0CB01F1CF08950F93C6
:101300001F9341E050E060E070E08A019B0104C05F
:10131000000F111F221F331F8A95D2F7C901B80190
:10132000DEDF1F910F9108950F931F9341E050E06E
:1013300060E070E004C0440F551F661F771F8A9558
:10134000D2F78091BC019091BD01A091BE01B091F6
:10135000BF018A019B01082B192B2A2B3B2BC901AA
:10136000B801BDDF1F910F9108950F931F9341E0C6
:1013700050E060E070E004C0440F551F661F771F07
:101380008A95D2F7CB01BA016095709580959095BA
:101390000091BC011091BD012091BE013091BF01AF
:1013A00060237123822393239ADF1F910F91089565
:1013B0000F931F9341E050E060E070E004C0440FE1
:1013C000551F661F771F8A95D2F78091BC019091B7
:1013D000BD01A091BE01B091BF018A019B01082708
:1013E00019272A273B27C901B80179DF1F910F91DF
:1013F00008950F931F930091BC011091BD0120919E
:10140000BE013091BF01602B712B822B932B67DFC4
:101410001F910F9108950F931F930091BC0110919C
:10142000BD012091BE013091BF0160237123822351
:10143000932355DF1F910F9108950F931F930091F0
:10144000BC011091BD012091BE013091BF01602708
:1014500071278227932743DF1F910F9108950895E5
:10146000262F277091E001C0990F2A95EAF723E013
:10147000769567952A95E1F725E0269FF001279F4D
:10148000F00D1124E40FF51F50E040E0682F70E0EC
:101490008191DF0111979B01042E02C0369527959B
:1014A0000A94E2F7217021952827292328272C93D5
:1014B0004F5F5F4F4530510559F70895A82FA7702A
:1014C00023E0969587952A95E1F725E0289FF0017E
:1014D000299FF00D1124E60FF71F50E040E080E057
:1014E000219130E00A2E02C0369527950A94E2F742
:1014F00021703327042E01C0220F0A94EAF7822BB1
:101500004F5F5F4F4530510559F70895262F9830AA
:1015100068F48A3058F4682F70E08AE0989F600D74
:10152000711D11244AE851E0822F9ACF0895292F86
:10153000983060F48A3050F490E06AE871E03AE064
:10154000239F800D911D1124B9CF089580E0089547
:10155000B0E0A0E0EEEAFAE00C944B218C01C090E0
:10156000BC01D090BD01E090BE01F090BF01809120
:10157000C0019091C101A091C201B091C301C82ADC
:10158000D92AEA2AFB2ACFE1D0E0BC2ED701C60136
:101590000C2E04C0B695A795979587950A94D2F717
:1015A00080FD09C0219788F7B12C8B2DCDB7DEB710
:1015B000E9E00C946721B8018C2F15D6019791F3BF
:1015C000F4CFCF93DF93EC01C3DFBE010CD6DF91E4
:1015D000CF9108951F93CF93DF93EB0190918901F1
:1015E000992331F0CB01EDDFDF91CF911F91089569
:1015F000882351F0CB01ACDF182F682FCE0186DF96
:10160000BE01812FF0D5F0CFCB0191DF182FF8CF9D
:101610001F93CF93DF93C091C40116E08091C50161
:101620008C1304C0DF91CF911F910895D0E01C9FCF
:10163000F0011D9FF00D1124EA53FE4F40815181AE
:101640006281738184819581F5DD2196C770E6CF33
:101650004091F6015091F7016091F8017091F90104
:101660008091FA019091FB01E5CD08951F93CF93EE
:10167000DF938091FB01807F09F047C08091F801E2
:10168000882309F442C08091C401C091C5016091D2
:10169000F6017091F701A091F901B091FA01D62FEE
:1016A000D72316E0C81789F190E0109711F0DF3FBB
:1016B00019F401968770F6CF189F9001199F300D8D
:1016C0001124F901EA53FE4F41814713F2CF4081C3
:1016D0004613EFCF42814111ECCF438154814A1B25
:1016E0005B0B483C510528F78091FB018F708061AE
:1016F0008093FB01F901E553FE4F80818F7080617B
:10170000808386EF91E027DD83DFDF91CF911F910A
:101710000895A1E1B0E0EFE8FBE00C944A218C01D0
:1017200085E0F801DE011D9601900D928A95E1F7A2
:10173000F801E28086EFC82E81E0D82E6091F90191
:101740007091FA016115710509F43BC19091F601A0
:101750002091F701892F82238F3F09F432C1408104
:101760005181A380B480F090F801F501E61BF70BDE
:10177000FF2009F4DCC08091FB01382F307FE83C6A
:10178000F10508F09AC0311169C0FE2C251314C070
:10179000941312C0E11010C08F7080618093FB0120
:1017A00057DFC601D8DC8091FB01F80185838F2DBE
:1017B0006196EAE00C946621A114B10429F0842F0B
:1017C00085238F3F09F013C180E0F82FF170DF2EE1
:1017D00080FF3AC08091C4012091C50136E0821398
:1017E00014C04D875E878D859E85EBDE292F22955F
:1017F0002F702230F0F0243018F59F70F1F0F801CE
:101800009581907FD1F4D12C1DC090E0389FF001DC
:10181000399FF00D1124EA53FE4F6181651306C014
:101820006081641303C06281E6120EC00196877066
:10183000D6CF9F7011F0882331F3805E883018F383
:10184000C80189DCFD2CB3CFEE2009F4B0CF809124
:10185000FB0181608093FB01F12CA9CF251306C009
:10186000941304C0F801EE2009F47DC0C801D2DC55
:10187000882301F1EE20F1F08091FB01803268F0C5
:101880002091F6013091F70138872F831986BB86A6
:10189000AA868C87CE0107965EDC86E0F801A6EF6B
:1018A000B1E001900D928A95E1F7E0DED1DEFF24F0
:1018B000F3947DCFC8014FDCFACF311110C07A2DDF
:1018C000B98AA88A6E2D8989ABDC86EF91E043DC6A
:1018D00086E0F60111928A95E9F7BADEBDCF2513AD
:1018E0000EC094130CC0E1100AC0F8018583C80132
:1018F00032DC86E0F60111928A95E9F758CFC801EB
:1019000089DC8823B9F2EE20A9F28091FB018032B4
:1019100008F4C3CF2091F6013091F7013A8329836F
:101920001B82BD82AC828E83CE010196B5CFE83C8E
:10193000F10508F03AC0FE2CEE2009F4BBCF2513C8
:1019400028C0941326C08091FB0180FD19C0982FF8
:10195000907FB1F0F8018583903F31F0982F907F10
:10196000905F8F70892B8583C801F5DB86E0F801D5
:10197000A6EFB1E001900D928A95E1F769DE17CFED
:1019800086E0F801A6EFB1E001900D928A95E1F7AB
:101990000ECFC8013FDC811180CF8091FB018160B7
:1019A0008093FB01C801D7DB02CF7A2DB98AA88AC0
:1019B0006E2D898935DC86E0F60111928A95E9F76A
:1019C000DDCFEE2009F476CFC80124DCF82E882381
:1019D00009F470CF86E0F801A6EFB1E001900D9216
:1019E0008A95E1F786EF91E01BD940DEC7CF81E011
:1019F0008E25EBCEACE0B0E0E0E0FDE00C945121B0
:101A00004F83588769877A878B879C87CE01079693
:101A100080DE882369F08A859B85892B39F04F8188
:101A20005885842F85238F3F09F067C016E05BC07F
:101A300086E0FE013796DE01119601900D928A959F
:101A4000E1F78A859B85892B89F388859F81892386
:101A50008F3F61F32091C50130E0C9010196877085
:101A600099274091C4014817190669F4B5DB109213
:101A7000C5011092C40186E0E6EFF1E0DF011D929E
:101A80008A95E9F7D3CF96E0929FD001939FB00D4E
:101A90001124AA53BE4FFE01319601900D929A95E2
:101AA000E1F78093C501B4DDC1CF819FC00111244E
:101AB0008A539E4F2EDE8823E1F0E091C4011E9FE1
:101AC000F0011124EA53FE4F4081518162817381FC
:101AD00084819581AFDB8091C40190E0019687708D
:101AE00099278093C4018091C4019091C501891305
:101AF000DCCF2C96E3E00C946D2169857A858B858B
:101B00009C8598DB93CF682F80910201909103010F
:101B10000C94D2190895682F8091020190910301CD
:101B20000C94D419089580910201909103010C94B2
:101B3000D619089580910402859585958595089517
:101B4000809104028770089590910402977081E05B
:101B500009F480E0089580910F02089590910F029A
:101B6000892B80930F020895809590910F029823FE
:101B700090930F02089580930F02089510920F0220
:101B8000089590910E02892B80930E0208958095FE
:101B900090910E02982390930E02089510920E02D7
:101BA00008958091050208950895FECF08959091BB
:101BB000530292FF07C090910502981719F0809385
:101BC0000502F3CF089580910502882321F0109239
:101BD000050280E0EACF0895CF93DF93E091020100
:101BE000F091030180910F028083E0910201F09156
:101BF0000301808190910E02892B808390910502D0
:101C0000992379F0E0910201F09103018081892B01
:101C1000808380910201909103010E948A198111B1
:101C2000D2DFC0910201D091030148E050E06CEF97
:101C300071E0CE010E947921892B59F088E0FE01E4
:101C4000ACEFB1E001900D928A95E1F7CE010E94D0
:101C50004519DF91CF9108950895FECF0895909191
:101C6000530292FF0FC098E0899F90011124622BCC
:101C70006093040259DB80910402859585958595D2
:101C8000ECCF089551CB08951092040280E0E5CF87
:101C90000895909104028095892380930402282F4F
:101CA000277081F4282F082E000C330B921713068F
:101CB00049F09091530292FF05C0859585958595D1
:101CC00054DBE2CF08959091530292FB222720F932
:101CD000281759F080FB92F9909353028091520299
:101CE0009091530235D082E0D4CF08958091530271
:101CF00082FB882780F991E08927E5CF089581E06C
:101D0000E2CF089580E0DFCF089590E080E00E9468
:101D10008E2121E0883E9E4F09F020E0822F089519
:101D200082E090E00C948621089583E090E00C948A
:101D300086210895CF9384E090E00E948621C82FE9
:101D400082E290E00E948621982F8C2FCF910895F7
:101D5000CF93C92F682F84E090E00E9493216C2FCD
:101D600082E290E00E949321CF910895AB01BC01E3
:101D70008FE090E00C94A5210895AB01BC0183E1B4
:101D800090E00C94A521089560E070E0CB01F5CFC0
:101D9000089560E070E0CB01E9DFF6CF089568EECA
:101DA0007EEF90E080E00E94AD2160E082E090E074
:101DB0000E94932160E083E090E00E9493211092C2
:101DC000C0011092C1011092C2011092C30160E0E3
:101DD00084E090E00E94932164E082E290E00E941F
:101DE000932160E085E090E00E94932160E086E02E
:101DF00090E00E9493216FEF87E090E00E94932192
:101E000040E050E0BA0188E090E00E94A52160E047
:101E10008DE090E00E94932140E050E0BA0188E11B
:101E200090E00E94A52160E087E190E00E9493216C
:101E300040E050E0BA018CE190E00E94A52170E002
:101E400060E080E290E00E94AD2140E050E0BA0105
:101E500088E190E00E94A5219CCF0895A0CF08952D
:101E6000682F8EE090E00C94932108950E944B1A05
:101E70006093240270932502809326029093270298
:101E80006093200270932102809322029093230298
:101E9000089508950895FECF08950895FECF0895FA
:101EA00080ED91E10E942C19F4DFF5CF089581E0D7
:101EB0000895FDCF089508950895FDDFFDCF08959D
:101EC00072D20E94C805A8C508950E94361A9AD2F7
:101ED000F7DFE4CF0895AAE0B0E0E1E7FFE00C947B
:101EE0004521A3D2A82E8111C1DF30E1832E32E03B
:101EF000932E10E000E0502E802F7AD26C01F40176
:101F0000619071904F016816790609F441C0809183
:101F1000280281FD76D2B12CEE24E394F12C6C24BE
:101F20007D24C3018E219F21892B61F1C2DF88238B
:101F3000B1F0BE825F82CE20DF2081E0C114D104E7
:101F400009F480E088870E943F1A8160782F9A8781
:101F500089874E815F8168858A850E94DE05000F32
:101F6000111FF801E05FFD4F80819181E826F9267D
:101F7000F182E08281E0A11001C080E02A96EFE0CA
:101F80000C946121B394EE0CFF1CFAE0BF12C9CF90
:101F90000F5F1F4F0830110509F0ADCF8FEF898318
:101FA0008A831B820E943F1A8160782F9D838C83D5
:101FB00049815A816B818D810E94DE05DBCF8BDFE9
:101FC00011D40C94D4050895CF93DF930FD1EC0175
:101FD000811521E5920708F042C0811530E593078D
:101FE00008F09BC0883E910530F5803E910508F0D1
:101FF00090C0883A910588F4853A910508F082C02E
:102000008130910509F485C0009709F482C00497D6
:1020100008F07FC0D0E0C0E07CC08F3B9105D0F7D6
:10202000C85AD0E0CC0FDD1FCD5ADE4F0990D881C1
:10203000C02DD4646EC08115904250F4C11581E06A
:10204000D80708F066C0CD3ED10520F3D06561C049
:10205000C11590E4D907F0F2DF70D06A5AC081153B
:1020600025E5920700F5811534E5930708F089C04E
:10207000811543E5940708F071C0C11582E5D807C2
:1020800008F467C0CE018370992721E030E002C0D8
:10209000220F331F8A95E2F7C695C69580E2C89F46
:1020A000E001112452C0C11599E5D907A0F4C1156A
:1020B00028E5D20708F06AC0C11536E5D30708F055
:1020C000A9CF8C2F2AD1C82FD0E0DC2FCC27CC274A
:1020D000DF71D0621EC0C1154AE5D40708F45BC0A9
:1020E000CE0190568115904208F094CF8D2F8F71BC
:1020F00014D190E0982F882788279F719C012C2B62
:10210000E901E7CFC55AD0E0CF57DE4FC881D0E014
:10211000D064CE01DF91CF910895E4E09695879544
:10212000EA95E1F783702C2F26952695237040E2DF
:10213000249F90011124382B8C2F8370C1E0D0E0B4
:1021400002C0CC0FDD1F8A95E2F7C22BD32BDC68CF
:10215000E0CFDC2FCC27C16FD06ADBCF837099270B
:1021600021E030E002C0220F331F8A95E2F7C695C6
:10217000C69590E2C99FE0011124C22BD32BDA68E7
:10218000C8CFD82FCC27C46FD06AC3CFDC2FCC27C1
:10219000C06FD06ABECF8C2F8F70BFD034E0D69581
:1021A000C7953A95E1F7CF709C2FEC01D069B1CF7C
:1021B000972F7830A8F46A3098F470E02AE0929F64
:1021C000600D711D1124FB0190E5899FE00DF11D4B
:1021D0001124EE0FFF1FE455FF4F85919491089550
:1021E00080E090E00895E4DFEFCE08958238910515
:1021F000B1F1B0F48133910509F475C048F4893226
:10220000910509F469C08A32910509F473C00895F3
:102210008533910509F459C08933910501F1089579
:10222000833E9105A9F138F4803E9105F9F0823E94
:10223000910549F10895863E9105A9F1873E9105E2
:10224000C9F1843E910519F52091530221FF1FC069
:102250008091520284FD14C087EE90E00895209191
:1022600052022370A1F080EE90E008952091520276
:1022700020FD47C03091530230FF09C024FF44C005
:1022800090E080E004C02091520222FDF7CF089533
:102290002091520222FD3BC03091530230FDE3CF2A
:1022A00024FFF5CFEDCF2091520223FFF0CF24FD84
:1022B000E7CFD2CF2091520223FD2CC030915302A0
:1022C00031FFEECF84EE90E008952091520225FF79
:1022D000DECF89E290E008952091520225FFD7CF0A
:1022E00085E390E008952091520226FFD0CF8AE244
:1022F00090E008952091520226FFC9CF81E390E03B
:10230000089589E390E0089583EE90E0089582EEC9
:1023100090E0089586EE90E008959091520292FF29
:1023200006C0282F28712830F9F4877F846093FF36
:1023300006C0282F28712831F1F4877E846120910E
:10234000530220FF06C0382F38713830D9F4877F08
:10235000816021FF06C0282F28712831D1F4877EA3
:10236000816194FD877E0895282F24712430F9F629
:102370008B7F8860DCCF282F2471243101F78B7E7E
:102380008861DDCF382F3171313019F78E7F886049
:10239000E0CF282F2171213121F78E7E8861E1CF96
:1023A00080E008950895B1DC811101C057DDB8DCEB
:1023B00080932802BFDC9093530280935202F2DF95
:1023C000B4DC682F70E090E080E00E9433096091F7
:1023D000BC017091BD018091BE019091BF010C9430
:1023E0006D0908950895FECF08950895FECF0895CC
:1023F000E82FF0E0EE0FFF1FEC59FD4F8081918137
:10240000089508950E94E303E4E5F2E0A4E6B2E053
:10241000119211921D921D9282E0E436F807C1F7E5
:1024200088E015D00C94EC040895CF9384E592E0F5
:102430000E94E503C82F282F48E064E672E084E597
:1024400092E006D00E94EF048C2FCF91089508955A
:10245000FF920F931F93CF93DF93F82E092F162F20
:10246000D72FC42F222349F081E080932B020E94B2
:102470003F1A90932A028093290280912B0288238D
:10248000A1F08091290290912A020E94571A059783
:1024900060F0EF2DF02FA12FBD2F90E080E0D0E075
:1024A0008C179D073CF010922B02CDB7DEB7E5E00C
:1024B0000C946B21219131912D933D930196F0CF96
:1024C0000E94401C02DD0C944A1C08950E944E1C80
:1024D00076DD0C944F1C089596D70E94271CE0DCF3
:1024E000EFDFF4DFEADCFDCF8091320280FF0DC028
:1024F0006091090170E0660F771F6038710570F513
:102500006115710569F1862F089581FF07C06091FB
:10251000090184E0689FB0011124EFCF60910901A7
:1025200082FD0AC0809131028823A9F02091080120
:1025300060910901821710F088E0ECCF869FC001FE
:10254000112433E0880F991F3A95E1F7622F70E06C
:102550000E942921D2CF68E070E0D5CF8FE708959F
:1025600081E008958091320280FF0CC060910501E6
:1025700070E075956795759567956115710549F1D9
:10258000862F089581FF06C06091050170E0759562
:102590006795F3CF6091050182FD0BC090913002E9
:1025A0009923A1F06091040180910501961738F0FC
:1025B000682F70E06038710500F38FE70895899FF8
:1025C000C001112470E00E942921F4CF61E070E085
:1025D000D7CF81E008958D3E29F486DF81958093E1
:1025E000360208958E3E11F47FDFF9CF8F3E29F435
:1025F0007BDF8195809335020895803F11F474DF6D
:10260000F9CF893F21F4AEDF8093370208958A3FE6
:1026100019F4A8DF8195F8CF8B3F29F4A3DF8195CA
:102620008093380208958C3F11F49CDFF9CF9FE02E
:10263000980F983070F4815F990B21E030E001C071
:10264000220F8A95EAF780913402822B809334021C
:1026500008958D3F31F4809132028160809332027F
:1026600008958E3F21F4809132028260F7CF8F3F30
:10267000B9F7809132028460F1CF409135028D3EEE
:1026800059F48091360287FF0DC010923602411135
:102690000BC01092310208C08E3E81F48091360248
:1026A00018169CF3442381F08091370290913802F0
:1026B000892B09F05AC01092300208958F3E49F4D8
:1026C00047FFF0CF10923502809136028111ECCF96
:1026D000E0CF803F19F41416ACF3E4CF90913702A9
:1026E000893F29F41916F4F610923702DBCF8A3F9E
:1026F00019F497FFD7CFF8CF909138028B3F29F488
:1027000097FFD0CF10923802CDCF8C3F19F4191615
:10271000CCF3C8CF9FE0980F983090F4815F990B6D
:1027200021E030E0B90102C0660F771F8A95E2F719
:10273000CB01809590913402892380933402B2CFEB
:102740008D3F31F4809132028E7F80933202AACF86
:102750008E3F21F4809132028D7FF7CF8F3F09F0B9
:10276000A1CF809132028B7FF0CF089588D69C0153
:102770009091350280913602982B21F030932F02F0
:1027800020932E029091370280913802982B21F0ED
:1027900030932D0220932C0283E392E081C50895AB
:1027A00086E0E3E3F2E0DF011D928A95E9F71092FB
:1027B000310210923002109232020895FC0182819F
:1027C00081110EC0838181110BC08481811108C0E9
:1027D00091E08581811101C090E0892F8170089579
:1027E00081E0FCCFA6E0B0E0E8EFF3E10C945121EA
:1027F00086E0E3E3F2E0DE01119601900D928A9506
:10280000E1F71092350210923602109237021092C0
:1028100038028B819C81892B81F080912E029091CE
:102820002F0245D6AC01909131029923A9F18091F4
:102830000A018417150608F43CC08D819E81892BFE
:1028400089F080912C0290912D0231D6AC019091AB
:102850003002992309F46CC0809106018417150693
:1028600008F474C0BE016F5F7F4F83E392E0A5D58B
:10287000811104C083E392E0A1DF811177DF86E05C
:10288000FE013196A3E3B2E001900D928A95E1F743
:102890002696E3E00C946D2120910B018AE0289F9D
:1028A000900111242417350740F69F5F9093310261
:1028B00002C09F3FD1F71B81112351F015DE9FEF1E
:1028C00011160CF491E0899F802D1124809335021C
:1028D0001C81112351F008DE9FEF11160CF491E0DA
:1028E000899F802D11248093360230913502332345
:1028F00009F4A3CF20913602222309F49ECF45EBA1
:102900003403C0011124992359F09093350245EB0B
:10291000240390011124332339F0309336028DCFF4
:1029200081E080933502F3CF81E08093360285CF3A
:10293000209107018AE0289F900111242417350770
:1029400008F090CF9F5F9093300202C09F3FD1F775
:102950001D81112351F006DE9FEF11160CF491E05A
:10296000899F802D1124809337021E81112351F0FD
:10297000F9DD9FEF11160CF491E0899F802D112451
:102980008093380230913702332309F46BCF2091C2
:102990003802222309F466CF45EB3403C001112429
:1029A000992359F09093370245EB240390011124A9
:1029B000332339F03093380255CF81E080933702CA
:1029C000F3CF81E0809338024DCFCF93DF93EC01BA
:1029D00097FF09C0FB018281882329F034D0CE0102
:1029E0009F77A5D07CD081E0DF91CF910895909121
:1029F0007502923071F48A3050F490E009966AE0E2
:102A000070E00E942921875A0C94A10608958650EF
:102A1000FBCF0C94B70508958CE090E00E948621CE
:102A200090E0B0E0A0E08093750290937602A093CE
:102A30007702B09378020895609175028CE090E07F
:102A40000C94932108951FD48695817080937A0207
:102A50001AD481708093740280917502813039F4A8
:102A600080917A02882319F089E30E94A10673D825
:102A70008093790283D892D880917502813089F051
:102A8000882359F0823091F0843021F18FE39CE962
:102A90000197F1F700C00000089582EE0E9415062C
:102AA000F5CF88E193E00E949104F0CF8091740209
:102AB000811103C083E50E94A10682EE0E941506E3
:102AC0008FE39CE90197F1F700C0000087E50E94C1
:102AD000A106DCCF86EE0E94A10688E1F8CF8091A6
:102AE0007502813071F0882341F08230A9F0843082
:102AF000E1F0809179023FC8089582EE0E945C0661
:102B0000F8CF8CE20E94A10680917A02882389F393
:102B100089E30E94A106EDCF82EE0E945C068091BF
:102B200074028111E6CF83E5F4CF88E2F2CF0F93F0
:102B30001F93CF93DF938C01CCE0D0E0C8010C2E23
:102B400002C0969587950A94E2F78F7050DF24971C
:102B5000CC3F8FEFD80791F7DF91CF911F910F9165
:102B600008950F931F93CF93DF93EC018B01FB012B
:102B70008281882359F00E94AB0DCE01825E9C4574
:102B80008530910518F48093750256DFB801CE01A7
:102B90001CDFDF91CF911F910F910895CF93DF93A9
:102BA000EC01FB018281882309F430C1C430FDE5CA
:102BB000DF07B0F5CB3F9CE5D90730F49E012250EA
:102BC0003C4524313105A0F5B5D89093530280934C
:102BD0005202C1318CE5D80709F4EDC008F068C095
:102BE000C930ECE5DE0709F4D4C0C0F5C5308CE58A
:102BF000D80709F4C6C0F8F4C330ECE5DE0709F4E1
:102C0000B8C008F0BAC0C230DC4509F4ACC080914D
:102C10005202909153029CD80E94EC0880E008C0B8
:102C2000C236EDE5DE0781F2C63AFDE5DF0761F267
:102C3000DF91CF910895809152028062C7309CE568
:102C4000D90709F493C0809152028061C830DC45F5
:102C500008F48CC080915202806488C08091520236
:102C60008B7FCD30FCE5DF0709F480C098F48091BC
:102C700052028E7FCB309CE5D90709F477C0809152
:102C800052028C60CC30DC4508F470C08091520256
:102C90008D7F6CC0809152028F7ECF30FCE5DF07C4
:102CA00009F464C008F47BC0809152028F7D5EC03D
:102CB000CE3F9CE5D90709F47AC050F5C531FCE553
:102CC000DF0709F486C098F480915202837FC331F4
:102CD0009CE5D90709F44AC008F471C00E94EC08C9
:102CE00090915202892F97FB87F980583FC0CC3FC3
:102CF000FCE5DF0709F449C008F055C08091530294
:102D00008160CB3FDC4509F082CF809353027FCFB7
:102D1000C230EDE5DE0709F468C0A8F4C1158DE501
:102D2000D80709F452C0809153028360C130DD4559
:102D300060F380915302982F909591708E7F892B2C
:102D400090FB81F9E2CFC236EDE5DE0709F450C011
:102D5000C63AFDE5DF0709F452C0C330DD4509F08E
:102D600056CF80E043C0809152028160809352022E
:102D70004ECF809152028260F9CF809152028460DE
:102D8000F5CF809152028860F1CF8091530282602A
:102D9000BCCF0E94EC08809152028068E7CF8091FE
:102DA0005202877FE3CF809153028E7FAECF809116
:102DB00053028D7FAACF809152028F7BD7CF0E9482
:102DC000EC08809152028F77D1CF809153028C7F93
:102DD0009CCF8091520282FB992790F921E09227A3
:102DE00090FB82F990FB83F9C1CF81E039D80FCFF6
:102DF00090915202892F8F7E94FF8061B7CF90917E
:102E00005202892F8E7F90FF8160B0CF81E010CF7A
:102E1000CF93DF93EB0186319C4511F50E94AB0DFA
:102E20009A81992399F08A7A91E009F490E090933D
:102E30003902811109C089E20E94830D0E94EC0DC4
:102E400080E0DF91CF91089585E3F6CF809139023C
:102E5000811104C089E20E948B0DF0CF85E3FBCF86
:102E600081E0EFCF0F931F93CF93DF93C42FD22F27
:102E7000FC0182818823C1F040933C0200D39093EF
:102E80003B0280933A0280E28C0F883040F4C77096
:102E900081E001C0880FCA95EAF70E94A906DF9178
:102EA000CF911F910F91089510913C02141331C0DE
:102EB00080913A0290913B02FAD2883C910548F504
:102EC000C0E2CD0F1D17B9F080E2810F883040F4C9
:102ED000177081E001C0880F1A95EAF70E94AE06CC
:102EE000C83048F481E09D2F977001C0880F9A95F3
:102EF000EAF70E94A906802F0E94A106C83078F642
:102F0000D77081E001C0880FDA95EAF70E94AE061B
:102F1000C6CF80E28C0F883010F6C77081E001C008
:102F2000880FCA95EAF7F2CF0F939C01CB01243F9B
:102F30004CE5340751F1A0F4293DFCE53F07F9F0D9
:102F40002A3D4CE53407C9F1283D3C4589F406E2A9
:102F500021EE41EE68ED7CE585DF80E00F9108957C
:102F6000263FFCE53F07E9F0B0F0273F3C45F9F08C
:102F7000FC018281882339F110923C02EFCF07E2F5
:102F800025EE45EE69ED7CE5E7CF06E221EE40EE69
:102F900064EF7CE5E1CF07E225EE44EE65EF7CE5EA
:102FA000DBCF06E221EE42EE66EF7CE5D5CF07E20D
:102FB00025EE46EE67EF7CE5CFCF08E221E045EE57
:102FC0006AED7CE5C9CF81E0C9CF1092B9008CE0F1
:102FD0008093B8000895B0E0A0E0E1EFF7E10C9431
:102FE0004921B82EEB014BD26C01EE24E394F12C75
:102FF000C431D10560F025E0E22EF12CCF3FDC0793
:1030000031F0CE0164E170E00E9415217B0184EA79
:10301000A82E94E8992E1092BC00A092BC002FD24A
:103020008C018091BC0087FF0DC08091B900887F22
:103030008830F1F08091B900887F8031C9F00FEFBE
:103040001FEF08C01CD2801B910B8E159F0548F303
:103050000EEF1FEFCF3FDC07F1F2C60128D28C172D
:103060009D07C8F2C801CDB7DEB7EBE00C9465212F
:10307000B092BB009092BC0002D28C018091BC0047
:1030800087FF0AC08091B900887F883111F08034B1
:10309000B1F610E000E0E6CFF2D1801B910B8E1567
:1030A0009F0560F3D5CF0F931F93CF93DF93EB0171
:1030B0008093BB0084E88093BC00E1D18C018091B7
:1030C000BC0087FF11C02091B900287F81E090E00B
:1030D000283211F490E080E0919581959109DF917B
:1030E000CF911F910F910895CF3FDC0741F3C7D1D6
:1030F000801B910B8C179D0710F38EEF9FEFEFCF86
:103100000F931F93CF93DF93EC0184EC8093BC006B
:10311000B6D18C018091BC0087FF08C08091BB00B4
:1031200090E0DF91CF911F910F910895CF3FDC0781
:1031300089F3A5D1801B910B8C179D0758F38EEF57
:103140009FEFEFCF0F931F93CF93DF93EC0184E8B2
:103150008093BC0094D18C018091BC0087FF08C093
:103160008091BB0090E0DF91CF911F910F91089566
:10317000CF3FDC0789F383D1801B910B8C179D0710
:1031800058F38EEF9FEFEFCFB0E0A0E0EAECF8E16C
:103190000C944C21C62F6A017901B8011CDF97FD00
:1031A0000BC0B8018C2F7FDFE601EC0CFD1CCE15A7
:1031B000DF0511F097FF08C024E92093BC00CDB7CC
:1031C000DEB7E8E00C946821B80189916CDFEFCF9D
:1031D000B0E0A0E0EEEEF8E10C944C21F82EE62EE3
:1031E000EA016901B801F7DE97FD13C0B8018E2D21
:1031F0005ADF97FD0EC0B8018F2D8160ECDEF12CF7
:10320000E12C21E0C21AD108EC14FD04D8F497FF98
:103210000DC024E92093BC001816190614F490E0A0
:1032200080E0CDB7DEB7E8E00C946821C80168DF24
:1032300097FD04C0FE01EE0DFF1D80832FEFE21A03
:10324000F20AE2CF97FDE5CFC8017CDF97FDE1CF21
:10325000CC0DDD1D8883DDCF9093850180938401A3
:10326000089590934202809341020895E0914102B3
:10327000F0914202309729F00190F081E02D0995FC
:10328000089580E00895F2CF0895E0914102F09111
:103290004202309721F00280F381E02D09950895D4
:1032A000E0914102F0914202309739F022E0DC01D6
:1032B0002C930480F581E02D0995089520913F021B
:1032C000309140022817390771F0909340028093A3
:1032D0003F02E0914102F0914202309721F00680D6
:1032E000F781E02D0995089520913D0230913E022D
:1032F0002817390771F090933E0280933D02E091C8
:103300004102F0914202309721F00084F185E02DD6
:10331000099508959C012E5F3F4FAC01485F5F4FB8
:1033200080E02417350709F40895F90191919F0170
:103330009923B9F38F5FF5CF662349F0FC013296EC
:1033400008962191261729F0E817F907D1F780E0B0
:10335000089581E008959C01FC0132969FEF80E082
:103360004191461751F09F3F19F4411101C0982F28
:103370008F5F8630A9F79F3F09F40895290F311D0B
:1033800097FD3A95F90162830895FC0132960896FB
:103390002191261303C0DF0111971C92E817F9074A
:1033A000B9F70895D8CF0895F0CF0895029626E092
:1033B000FC0111922A95E9F7089546E050E099D76B
:1033C00021E0892B09F420E0822F08950895FECF93
:1033D0000895811105C081E080934302F8CF0895DC
:1033E00082E0FACF83E080934302F1CF0895F1CFDA
:1033F000089581E080934302EACF0895FACF0895BB
:103400000895FECF089585B7806885BF85B7806829
:1034100085BF08951F921FB61F9211248F939F930B
:10342000AF93BF9380914402811113C080917B02BE
:1034300090917C02A0917D02B0917E024196A11DE7
:10344000B11D80937B0290937C02A0937D02B09388
:103450007E02BF91AF919F918F911F901FBE1F90D1
:1034600018950E94EC080C945C05089582E084BDD8
:1034700093E095BD9AEF97BD80936E0008952FB7A6
:10348000F89480917B0290917C02A0917D02B09192
:103490007E022FBF08952FB7F89460917B02709140
:1034A0007C0280917D0290917E022FBF08959C0145
:1034B0004FB7F89480917B0290917C02A0917D029D
:1034C000B0917E024FBF821B930B089578941F9298
:1034D0001FB61F9211248F939F93AF93BF93809138
:1034E0007B0290917C02A0917D02B0917E020196B8
:1034F000A11DB11D80937B0290937C02A0937D025D
:10350000B0937E02BF91AF919F918F911F901FBE8C
:103510001F90189581E08093E00080E28093D800AE
:103520001092C9008FE19EE40197F1F700C00000FE
:1035300087E090EBDC0180938C0290938D02A09346
:103540008E02B0938F0288E19CE00FB6F894A895A4
:10355000809360000FBE90936000FFCF88E19CE0F5
:103560000FB6F894A895809360000FBE909360000A
:10357000FFCF80915002089508959C0182E08093CE
:10358000E9009FEF8091E800915085FD06C085ED30
:103590008A95F1F700009111F5CF8091E80085FF41
:1035A0000BC050E040E066E070E0C901D3D18091EB
:1035B000E8008E778093E8000895CF93DF93EC01C5
:1035C00081E08093E9008FEF9091E800815095FDB4
:1035D00006C095ED9A95F1F700008111F5CF809125
:1035E000E80085FF13C050E040E068E070E0CE01E5
:1035F000B1D18091E8008E778093E80088E0FE01E9
:10360000A8E4B2E001900D928A95E1F7DF91CF91A5
:10361000089580934502709347026093460280911B
:1036200083028430F9F482E08093E9008FEF909177
:10363000E800815095FD06C095ED9A95F1F70000E0
:103640008111F5CF8091E80085FF0CC050E040E08B
:1036500063E070E085E492E07DD18091E8008E77B0
:103660008093E8000895BC0184E0D3CF0895BC01A5
:1036700083E0CFCF089580918202811107C0F8D2F4
:103680004FD38091E20084608093E200089510920D
:1036900082020895AECE089560917F0281E06111AB
:1036A00001C080E09FCE0895DCDE9091830281E02E
:1036B000943009F080E060917F0299CE089542E055
:1036C00061EC81E051D242E261EC82E04DD2909116
:1036D000830281E0943009F080E060917F0279CE2E
:1036E000089580918502833009F45FC030F4813001
:1036F000C9F1823009F49AC008958A3009F487C06C
:103700008B3009F46DC0893009F04EC0809184027D
:10371000813209F049C08091880290918902029714
:1037200008F042C08091E800877F8093E800809194
:10373000E80082FF35C09091F3008091F20002977B
:1037400031F48091F100813011F0863021F48091C4
:10375000F100809350028091E8008B778093E8001D
:1037600037D222C080918402813AF1F48091E8003E
:10377000877F8093E8008091880290918902892B4D
:1037800059F468E088E492E070E031D18091E8007B
:103790008B778093E800089560E090E080E0F4CFBC
:1037A000809183028111C3CF089580918402813A70
:1037B000D9F78091880290918902892BA9F780918D
:1037C000E800877F8093E8008091E80080FFFCCFCD
:1037D000809118018093F1008091E8008E77BECF30
:1037E00080918402813201F7809188029091890250
:1037F000892BD1F68091E800877F8093E800E8D19B
:1038000080918602809318010C94EC0808958091B1
:103810008402813249F68091E800877F8093E80036
:10382000D7D18091870280935102089580918402BC
:10383000813A09F0B9CF8091E800877F8093E80052
:103840008091E80080FFFCCF80915102C3CF84B704
:10385000877F84BF0FB6F894A89580916000886137
:1038600080936000109260000FBE80E890E00FB679
:10387000F89480936100909361000FBEBFCD0895CE
:10388000F7D14ED2E2EEF0E08081846080837894BC
:10389000B2C408958CE091E0E4CC089508950895B1
:1038A00001C00895292F33272330310519F168F419
:1038B0002130310509F444C02230310509F445C0F6
:1038C00090E080E030E020E025C02132310549F170
:1038D00022323105A9F780E490E022E234E061155C
:1038E0007105C1F08BE790E027EA33E061307105A4
:1038F00089F0E6CF99278130910581F0009729F072
:103900000297F1F6ECE3F3E002C0E6E5F3E0849120
:1039100090E09F01FA01318320830895E6E4F3E00B
:10392000F6CF89E090E02CE633E06115710591F364
:1039300089E090E025E833E06130710559F3C0CFAC
:1039400082E190E025E933E0E5CF8BE390E02AE5E2
:1039500033E0E0CFAF92BF92CF92DF92FF920F930E
:103960001F93CF93DF936C01EB018A0150D1F82EA6
:10397000811123C00115110539F0F8018081918171
:10398000C81BD90BC80ED91EB12CA12C2097A9F0A9
:103990008091E80085FD21C08091E8008E778093BA
:1039A000E80001151105A1F0F80180819181A80EB0
:1039B000B91EB182A08285E0F82E8F2DDF91CF91C4
:1039C0001F910F91FF90DF90CF90BF90AF9008951F
:1039D0001ED18823D9F2F82EF0CFF60181916F0124
:1039E0008093F1002197FFEFAF1ABF0ACFCFFC0100
:1039F00080918A0290918B0286179707A0F061153B
:103A0000710529F49091E8009E779093E80090E08A
:103A10006115710551F4911108C08091E80082FF91
:103A200034C080E00895BC01F2CF809183028823E6
:103A3000C1F18530C1F18091E80083FD30C08091F3
:103A4000E80082FDEACF8091E80080FFE1CF80911D
:103A5000F3002091F200382F6115710519F028301C
:103A6000310558F091E02830310509F090E02091BF
:103A7000E8002E772093E800CBCF81918093F1006E
:103A8000615071092F5F3F4FE7CF809183028823F8
:103A900041F0853041F08091E80083FFBECF81E0A6
:103AA000089582E0089583E00895FC0180918A02E0
:103AB00090918B0286179707A0F06115710529F484
:103AC0008091E8008E778093E80090E061157105A1
:103AD00051F4911108C08091E80082FF35C080E068
:103AE0000895BC01F2CF809183028823C9F185300B
:103AF000C9F18091E80083FD31C08091E80082FD2A
:103B0000EACF8091E80080FFE1CF8091F30020911F
:103B1000F200382F6115710519F02830310558F081
:103B200091E02830310509F090E08091E8008E772F
:103B30008093E800CBCF84918093F100319661505F
:103B400071092F5F3F4FE6CF80918302882341F0B8
:103B5000853041F08091E80083FFBDCF81E008957A
:103B600082E0089583E00895982F973028F08F70B1
:103B70008093E90081E008959093E900242F762F47
:103B800050E0981731F07091EC002091ED005091C9
:103B9000F00021FD02C09F5FE8CF3091EB003E7F37
:103BA0003093EB003091ED003D7F3093ED0030918C
:103BB000EB0031603093EB007093EC002093ED004C
:103BC0005093F0002091EE0027FDE5CF80E00895AE
:103BD0008091840287FF13C08091E80082FF06C0B5
:103BE0008091E8008B778093E80004C08091830285
:103BF0008111F2CF0895809183028823D9F38091B7
:103C0000E80080FFF8CF8091E8008E77ECCF20911C
:103C1000E4003091E50095E6A9012091EC00822FA7
:103C2000817020FF06C08091E80080FF06C080E020
:103C300008952091E80022FD1AC080918302882314
:103C400089F0853089F08091EB0085FD0FC02091CF
:103C5000E4003091E50042175307F9F29150E1F684
:103C600084E0089582E0089583E0089581E0089556
:103C700068D06FD0E0EEF0E0808181608083E8ED75
:103C8000F0E080818F77808319BCA7EDB0E08C9144
:103C90008E7F8C9380818F7E808310928202089524
:103CA0000F931F93CF93DF934CD053D0C8EDD0E048
:103CB00088818F77888388818068888388818F7DD9
:103CC000888319BC1092830210927F0210928102A5
:103CD0001092800200EE10E0F80180818B7F8083DB
:103CE00088818160888342E060E080E03DDFE1EE32
:103CF000F0E080818E7F8083E2EEF0E08081816061
:103D00008083808188608083F80180818E7F8083BA
:103D1000888180618883DF91CF911F910F910895F1
:103D2000E8EDF0E080818F7E8083E7EDF0E0808138
:103D30008160808384E082BF81E080938202B0CF83
:103D40000895E8EDF0E080818E7F80831092E2009C
:103D500008951092DA001092E10008951F920F92D8
:103D60000FB60F9211242F933F934F935F936F934E
:103D70007F938F939F93AF93BF93EF93FF93809124
:103D8000E10082FF0AC08091E20082FF06C08091BC
:103D9000E1008B7F8093E1002DD28091DA0080FFDB
:103DA00018C08091D80080FF14C08091DA008E7F07
:103DB0008093DA008091D90080FF91C080E189BDB5
:103DC00082E189BD09B400FEFDCF81E080938302CA
:103DD00052DC8091E10080FF18C08091E20080FFFA
:103DE00014C08091E2008E7F8093E2008091E20017
:103DF00080618093E2008091D80080628093D80037
:103E000019BC85E08093830247DC8091E10084FF48
:103E10002AC08091E20084FF26C080E189BD82E152
:103E200089BD89B5982F917080FFFBCF8091D80014
:103E30008F7D8093D8008091E1008F7E8093E10098
:103E40008091E2008F7E8093E2008091E2008160A9
:103E50008093E20080917F02882309F445C084E0CA
:103E60008093830221DC8091E10083FF27C0809151
:103E7000E20083FF23C08091E100877F8093E1000F
:103E800082E08093830210927F028091E1008E7F16
:103E90008093E1008091E2008E7F8093E200809128
:103EA000E20080618093E20042E060E080E05CDE5E
:103EB0008091F00088608093F000ECDBFF91EF913F
:103EC000BF91AF919F918F917F916F915F914F9132
:103ED0003F912F910F900FBE0F901F90189519BC16
:103EE00010928302D4DB75CF8091E30087FD93E0CD
:103EF00090938302B7CF1F920F920FB60F921124A7
:103F00002F933F934F935F936F937F938F939F93E1
:103F1000AF93BF93CF93DF93EF93FF93D091E900DB
:103F2000DF708091EC00C82FC17080FDC0E8109256
:103F3000E9008091F000877F8093F00078941ED094
:103F40001092E9008091F00088608093F000CD2B02
:103F5000CF70C093E900FF91EF91DF91CF91BF91B6
:103F6000AF919F918F917F916F915F914F913F9111
:103F70002F910F900FBE0F901F901895AAE2B0E0FE
:103F8000E3ECFFE18EC184E892E02091F100FC01B6
:103F90002193CF01F2E08C389F07B9F7A2DB809123
:103FA000E80083FF16C180918402909185029A30C7
:103FB00008F00FC1E92FF0E0E153FE4D5DC18038FC
:103FC00099F0823809F005C1809188028F7087309E
:103FD00008F0FFC08093E9008091EB0085FB882703
:103FE00080F91092E90006C08091800290918102D0
:103FF000911182609091E800977F9093E800809300
:10400000F1001092F1008091E8008E77DFC08823E4
:1040100009F4CDC0823009F0DCC0809186028111A4
:10402000D0C0809188028F702FEF280F263008F0C3
:10403000D0C08093E9002091EB0020FFC2C09330F4
:1040400031F48091EB0080628093EB00BAC09091D4
:10405000EB0090619093EB0021E030E001C0220F73
:104060008A95EAF72093EA001092EA008091EB002B
:104070008860EACF8111ADC0109186021F778091D0
:10408000E3008078812B8093E3008091E800877FB4
:104090008093E8009DDD8091E80080FFFCCF809157
:1040A000E30080688093E30082E0111183E0809355
:1040B00083028FC08058823008F08BC080918602C6
:1040C000909187028C3D23E0920799F583E08A83E3
:1040D0008AE289834FB7F894DE01139620E03EE030
:1040E00051E2E32FF0E050935700E49120FF03C02A
:1040F000E295EF703F5FEF708E2F90E0EA30B8F0FE
:10410000C7968D939D932F5F243159F74FBF8091B0
:10411000E800877F8093E8006AE270E0CE010196B4
:1041200066DC8091E8008B778093E80052C0C096EF
:10413000E8CF6091880270918902AE014F5F5F4FB6
:10414000AFDBBC01892B09F444C09091E800977F54
:104150009093E80089819A81A8DCE3CF8038C9F583
:104160008091E800877F8093E80080917F028093B0
:10417000F10049CF81112DC090918602923048F50F
:104180008091E800877F8093E80090937F0220DD94
:1041900080917F02882311F084E005C08091E300C4
:1041A00087FDFACF81E08093830289DA12C0809183
:1041B0008602813071F481E0933009F080E08093D1
:1041C00081021092E9008091E800877F8093E800E7
:1041D000FFDC8091E80083FF0AC08091E800877FC0
:1041E0008093E8008091EB0080628093EB00AA96B8
:1041F000E3E073C00895CF9380918302882399F000
:10420000C091E900CF709091EC00892F817090FDF2
:1042100080E8C82B1092E9008091E80083FDAEDEB3
:10422000CF70C093E900CF910895AA1BBB1B51E149
:1042300007C0AA1FBB1FA617B70710F0A61BB70B16
:10424000881F991F5A95A9F780959095BC01CD01BB
:10425000089597FB072E16F4009406D077FD08D03A
:10426000E4DF07FC05D03EF4909581959F4F0895BB
:10427000709561957F4F0895EE0FFF1F0590F491A3
:10428000E02D09942F923F924F925F926F927F920E
:104290008F929F92AF92BF92CF92DF92EF92FF9256
:1042A0000F931F93CF93DF93CDB7DEB7CA1BDB0B02
:1042B0000FB6F894DEBF0FBECDBF09942A883988A7
:1042C00048885F846E847D848C849B84AA84B984AE
:1042D000C884DF80EE80FD800C811B81AA81B981BA
:1042E000CE0FD11D0FB6F894DEBF0FBECDBFED01CE
:1042F0000895FB01DC0104C08D910190801921F427
:1043000041505040C8F7881B990B0895F999FECF8A
:1043100092BD81BDF89A992780B50895A8E1B0E0D3
:1043200042E050E020C0262FF999FECF92BD81BD1A
:10433000F89A019700B4021639F01FBA20BD0FB6E3
:10434000F894FA9AF99A0FBE08950396272FECDF96
:10435000EADF252FE9DF242FE7CF0196272FE4DFBF
:10436000E2CFDC01CB01FC01F999FECF06C0F2BD22
:10437000E1BDF89A319600B40D9241505040B8F723
:104380000895F894FFCFEB06EB0615071507900785
:10439000AC0740074007B7073B0847084708DF1F3F
:1043A0000720E9200720E9203A205A20E920AE2002
:0243B000BA2031
:1043B20040000602280850011E0A1401B91ADD1A2B
:1043C200BD1A371B331BBC1A013031323433C6F7E6
:1043D2003635E200E900EA00B500B600B700CD00CC
:1043E2008301CC008A01920194012102230224025A
:1043F2002502260227022A02B300B4006F007000D1
:10440200818283E200E900EA00B500B600B700CD80
:10441200008301CC008A019201940121022302242B
:10442200022502260227022A02B300B4006F00709E
:044432000081828300
:00000001FF
